{
  "_format": "hh-sol-artifact-1",
  "contractName": "Dex",
  "sourceName": "contracts/Dex.sol",
  "abi": [
    {
      "inputs": [],
      "stateMutability": "nonpayable",
      "type": "constructor"
    },
    {
      "anonymous": false,
      "inputs": [
        {
          "indexed": false,
          "internalType": "uint256",
          "name": "tradeId",
          "type": "uint256"
        },
        {
          "indexed": false,
          "internalType": "uint256",
          "name": "orderId",
          "type": "uint256"
        },
        {
          "indexed": true,
          "internalType": "bytes32",
          "name": "ticker",
          "type": "bytes32"
        },
        {
          "indexed": true,
          "internalType": "address",
          "name": "trader1",
          "type": "address"
        },
        {
          "indexed": true,
          "internalType": "address",
          "name": "trader2",
          "type": "address"
        },
        {
          "indexed": false,
          "internalType": "uint256",
          "name": "amount",
          "type": "uint256"
        },
        {
          "indexed": false,
          "internalType": "uint256",
          "name": "price",
          "type": "uint256"
        },
        {
          "indexed": false,
          "internalType": "uint256",
          "name": "date",
          "type": "uint256"
        }
      ],
      "name": "NewTrade",
      "type": "event"
    },
    {
      "inputs": [
        {
          "internalType": "bytes32",
          "name": "ticker",
          "type": "bytes32"
        },
        {
          "internalType": "address",
          "name": "tokenAddress",
          "type": "address"
        }
      ],
      "name": "addToken",
      "outputs": [],
      "stateMutability": "nonpayable",
      "type": "function"
    },
    {
      "inputs": [],
      "name": "admin",
      "outputs": [
        {
          "internalType": "address",
          "name": "",
          "type": "address"
        }
      ],
      "stateMutability": "view",
      "type": "function"
    },
    {
      "inputs": [
        {
          "internalType": "bytes32",
          "name": "ticker",
          "type": "bytes32"
        },
        {
          "internalType": "uint256",
          "name": "amount",
          "type": "uint256"
        },
        {
          "internalType": "uint256",
          "name": "price",
          "type": "uint256"
        },
        {
          "internalType": "enum Dex.Side",
          "name": "side",
          "type": "uint8"
        }
      ],
      "name": "createLimitOrder",
      "outputs": [],
      "stateMutability": "nonpayable",
      "type": "function"
    },
    {
      "inputs": [
        {
          "internalType": "bytes32",
          "name": "ticker",
          "type": "bytes32"
        },
        {
          "internalType": "uint256",
          "name": "amount",
          "type": "uint256"
        },
        {
          "internalType": "enum Dex.Side",
          "name": "side",
          "type": "uint8"
        }
      ],
      "name": "createMarketOrder",
      "outputs": [],
      "stateMutability": "nonpayable",
      "type": "function"
    },
    {
      "inputs": [
        {
          "internalType": "bytes32",
          "name": "ticker",
          "type": "bytes32"
        },
        {
          "internalType": "uint256",
          "name": "amount",
          "type": "uint256"
        }
      ],
      "name": "deposit",
      "outputs": [],
      "stateMutability": "nonpayable",
      "type": "function"
    },
    {
      "inputs": [
        {
          "internalType": "bytes32",
          "name": "ticker",
          "type": "bytes32"
        },
        {
          "internalType": "enum Dex.Side",
          "name": "side",
          "type": "uint8"
        }
      ],
      "name": "getOrders",
      "outputs": [
        {
          "components": [
            {
              "internalType": "uint256",
              "name": "id",
              "type": "uint256"
            },
            {
              "internalType": "address",
              "name": "trader",
              "type": "address"
            },
            {
              "internalType": "enum Dex.Side",
              "name": "side",
              "type": "uint8"
            },
            {
              "internalType": "bytes32",
              "name": "ticker",
              "type": "bytes32"
            },
            {
              "internalType": "uint256",
              "name": "amount",
              "type": "uint256"
            },
            {
              "internalType": "uint256",
              "name": "filled",
              "type": "uint256"
            },
            {
              "internalType": "uint256",
              "name": "price",
              "type": "uint256"
            },
            {
              "internalType": "uint256",
              "name": "date",
              "type": "uint256"
            }
          ],
          "internalType": "struct Dex.Order[]",
          "name": "",
          "type": "tuple[]"
        }
      ],
      "stateMutability": "view",
      "type": "function"
    },
    {
      "inputs": [],
      "name": "getTokens",
      "outputs": [
        {
          "components": [
            {
              "internalType": "uint256",
              "name": "id",
              "type": "uint256"
            },
            {
              "internalType": "bytes32",
              "name": "ticker",
              "type": "bytes32"
            },
            {
              "internalType": "address",
              "name": "tokenAddress",
              "type": "address"
            }
          ],
          "internalType": "struct Dex.Token[]",
          "name": "",
          "type": "tuple[]"
        }
      ],
      "stateMutability": "view",
      "type": "function"
    },
    {
      "inputs": [],
      "name": "getTokensList",
      "outputs": [
        {
          "internalType": "bytes32[]",
          "name": "",
          "type": "bytes32[]"
        }
      ],
      "stateMutability": "view",
      "type": "function"
    },
    {
      "inputs": [],
      "name": "nextOrderId",
      "outputs": [
        {
          "internalType": "uint256",
          "name": "",
          "type": "uint256"
        }
      ],
      "stateMutability": "view",
      "type": "function"
    },
    {
      "inputs": [],
      "name": "nextTokenId",
      "outputs": [
        {
          "internalType": "uint256",
          "name": "",
          "type": "uint256"
        }
      ],
      "stateMutability": "view",
      "type": "function"
    },
    {
      "inputs": [],
      "name": "nextTradeId",
      "outputs": [
        {
          "internalType": "uint256",
          "name": "",
          "type": "uint256"
        }
      ],
      "stateMutability": "view",
      "type": "function"
    },
    {
      "inputs": [
        {
          "internalType": "bytes32",
          "name": "",
          "type": "bytes32"
        },
        {
          "internalType": "uint256",
          "name": "",
          "type": "uint256"
        },
        {
          "internalType": "uint256",
          "name": "",
          "type": "uint256"
        }
      ],
      "name": "orderBook",
      "outputs": [
        {
          "internalType": "uint256",
          "name": "id",
          "type": "uint256"
        },
        {
          "internalType": "address",
          "name": "trader",
          "type": "address"
        },
        {
          "internalType": "enum Dex.Side",
          "name": "side",
          "type": "uint8"
        },
        {
          "internalType": "bytes32",
          "name": "ticker",
          "type": "bytes32"
        },
        {
          "internalType": "uint256",
          "name": "amount",
          "type": "uint256"
        },
        {
          "internalType": "uint256",
          "name": "filled",
          "type": "uint256"
        },
        {
          "internalType": "uint256",
          "name": "price",
          "type": "uint256"
        },
        {
          "internalType": "uint256",
          "name": "date",
          "type": "uint256"
        }
      ],
      "stateMutability": "view",
      "type": "function"
    },
    {
      "inputs": [
        {
          "internalType": "uint256",
          "name": "",
          "type": "uint256"
        }
      ],
      "name": "tokenList",
      "outputs": [
        {
          "internalType": "bytes32",
          "name": "",
          "type": "bytes32"
        }
      ],
      "stateMutability": "view",
      "type": "function"
    },
    {
      "inputs": [
        {
          "internalType": "bytes32",
          "name": "",
          "type": "bytes32"
        }
      ],
      "name": "tokens",
      "outputs": [
        {
          "internalType": "uint256",
          "name": "id",
          "type": "uint256"
        },
        {
          "internalType": "bytes32",
          "name": "ticker",
          "type": "bytes32"
        },
        {
          "internalType": "address",
          "name": "tokenAddress",
          "type": "address"
        }
      ],
      "stateMutability": "view",
      "type": "function"
    },
    {
      "inputs": [
        {
          "internalType": "address",
          "name": "",
          "type": "address"
        },
        {
          "internalType": "bytes32",
          "name": "",
          "type": "bytes32"
        }
      ],
      "name": "traderBalances",
      "outputs": [
        {
          "internalType": "uint256",
          "name": "",
          "type": "uint256"
        }
      ],
      "stateMutability": "view",
      "type": "function"
    },
    {
      "inputs": [
        {
          "internalType": "bytes32",
          "name": "ticker",
          "type": "bytes32"
        },
        {
          "internalType": "uint256",
          "name": "amount",
          "type": "uint256"
        }
      ],
      "name": "withdraw",
      "outputs": [],
      "stateMutability": "nonpayable",
      "type": "function"
    }
  ],
  "bytecode": "0x608060405234801561001057600080fd5b5033600460006101000a81548173ffffffffffffffffffffffffffffffffffffffff021916908373ffffffffffffffffffffffffffffffffffffffff160217905550613a39806100616000396000f3fe608060405234801561001057600080fd5b50600436106101005760003560e01c80637f2c6246116100975780639ead7222116100665780639ead7222146102b6578063aa6ca808146102e6578063d9c0c95014610304578063f851a4401461032057610100565b80637f2c62461461022e578063813ad0831461024a578063904194a3146102685780639776aacf1461029a57610100565b8063466bca02116100d3578063466bca021461019257806346e9658b146101b057806372ce957e146101e057806375794a3c1461021057610100565b8063040cf020146101055780630bb431b6146101215780631de26e16146101585780632a58b33014610174575b600080fd5b61011f600480360381019061011a9190612e17565b61033e565b005b61013b60048036038101906101369190612ea2565b6105a6565b60405161014f989796959493929190613593565b60405180910390f35b610172600480360381019061016d9190612e17565b610645565b005b61017c61081c565b6040516101899190613578565b60405180910390f35b61019a610822565b6040516101a79190613437565b60405180910390f35b6101ca60048036038101906101c59190612ddb565b61087a565b6040516101d79190613459565b60405180910390f35b6101fa60048036038101906101f59190612d11565b610a50565b6040516102079190613578565b60405180910390f35b610218610a75565b6040516102259190613578565b60405180910390f35b61024860048036038101906102439190612e53565b610a7b565b005b610252611c5a565b60405161025f9190613578565b60405180910390f35b610282600480360381019061027d9190612d76565b611c60565b60405161029193929190613611565b60405180910390f35b6102b460048036038101906102af9190612d9f565b611caa565b005b6102d060048036038101906102cb9190612f54565b611e22565b6040516102dd919061349d565b60405180910390f35b6102ee611e46565b6040516102fb919061347b565b60405180910390f35b61031e60048036038101906103199190612ef1565b612096565b005b610328612c48565b60405161033591906133bc565b60405180910390f35b81600073ffffffffffffffffffffffffffffffffffffffff1660008083815260200190815260200160002060020160009054906101000a900473ffffffffffffffffffffffffffffffffffffffff1673ffffffffffffffffffffffffffffffffffffffff1614156103e4576040517f08c379a00000000000000000000000000000000000000000000000000000000081526004016103db906134d8565b60405180910390fd5b81600160003373ffffffffffffffffffffffffffffffffffffffff1673ffffffffffffffffffffffffffffffffffffffff1681526020019081526020016000206000858152602001908152602001600020541015610477576040517f08c379a000000000000000000000000000000000000000000000000000000000815260040161046e906134b8565b60405180910390fd5b60008084815260200190815260200160002060020160009054906101000a900473ffffffffffffffffffffffffffffffffffffffff1673ffffffffffffffffffffffffffffffffffffffff1663a9059cbb33846040518363ffffffff1660e01b81526004016104e792919061340e565b602060405180830381600087803b15801561050157600080fd5b505af1158015610515573d6000803e3d6000fd5b505050506040513d601f19601f820116820180604052508101906105399190612d4d565b5081600160003373ffffffffffffffffffffffffffffffffffffffff1673ffffffffffffffffffffffffffffffffffffffff1681526020019081526020016000206000858152602001908152602001600020600082825461059a9190613807565b92505081905550505050565b600260205282600052604060002060205281600052604060002081815481106105ce57600080fd5b906000526020600020906007020160009250925050508060000154908060010160009054906101000a900473ffffffffffffffffffffffffffffffffffffffff16908060010160149054906101000a900460ff16908060020154908060030154908060040154908060050154908060060154905088565b81600073ffffffffffffffffffffffffffffffffffffffff1660008083815260200190815260200160002060020160009054906101000a900473ffffffffffffffffffffffffffffffffffffffff1673ffffffffffffffffffffffffffffffffffffffff1614156106eb576040517f08c379a00000000000000000000000000000000000000000000000000000000081526004016106e2906134d8565b60405180910390fd5b60008084815260200190815260200160002060020160009054906101000a900473ffffffffffffffffffffffffffffffffffffffff1673ffffffffffffffffffffffffffffffffffffffff166323b872dd3330856040518463ffffffff1660e01b815260040161075d939291906133d7565b602060405180830381600087803b15801561077757600080fd5b505af115801561078b573d6000803e3d6000fd5b505050506040513d601f19601f820116820180604052508101906107af9190612d4d565b5081600160003373ffffffffffffffffffffffffffffffffffffffff1673ffffffffffffffffffffffffffffffffffffffff168152602001908152602001600020600085815260200190815260200160002060008282546108109190613757565b92505081905550505050565b60065481565b6060600380548060200260200160405190810160405280929190818152602001828054801561087057602002820191906000526020600020905b81548152602001906001019080831161085c575b5050505050905090565b60606002600084815260200190815260200160002060008360018111156108ca577f4e487b7100000000000000000000000000000000000000000000000000000000600052602160045260246000fd5b8152602001908152602001600020805480602002602001604051908101604052809291908181526020016000905b82821015610a44578382906000526020600020906007020160405180610100016040529081600082015481526020016001820160009054906101000a900473ffffffffffffffffffffffffffffffffffffffff1673ffffffffffffffffffffffffffffffffffffffff1673ffffffffffffffffffffffffffffffffffffffff1681526020016001820160149054906101000a900460ff1660018111156109c7577f4e487b7100000000000000000000000000000000000000000000000000000000600052602160045260246000fd5b60018111156109ff577f4e487b7100000000000000000000000000000000000000000000000000000000600052602160045260246000fd5b815260200160028201548152602001600382015481526020016004820154815260200160058201548152602001600682015481525050815260200190600101906108f8565b50505050905092915050565b6001602052816000526040600020602052806000526040600020600091509150505481565b60055481565b82600073ffffffffffffffffffffffffffffffffffffffff1660008083815260200190815260200160002060020160009054906101000a900473ffffffffffffffffffffffffffffffffffffffff1673ffffffffffffffffffffffffffffffffffffffff161415610b21576040517f08c379a0000000000000000000000000000000000000000000000000000000008152600401610b18906134d8565b60405180910390fd5b837f4441490000000000000000000000000000000000000000000000000000000000811415610b85576040517f08c379a0000000000000000000000000000000000000000000000000000000008152600401610b7c90613558565b60405180910390fd5b600180811115610bbe577f4e487b7100000000000000000000000000000000000000000000000000000000600052602160045260246000fd5b836001811115610bf7577f4e487b7100000000000000000000000000000000000000000000000000000000600052602160045260246000fd5b1415610c915783600160003373ffffffffffffffffffffffffffffffffffffffff1673ffffffffffffffffffffffffffffffffffffffff1681526020019081526020016000206000878152602001908152602001600020541015610c90576040517f08c379a0000000000000000000000000000000000000000000000000000000008152600401610c8790613538565b60405180910390fd5b5b6000600260008781526020019081526020016000206000806001811115610ce1577f4e487b7100000000000000000000000000000000000000000000000000000000600052602160045260246000fd5b866001811115610d1a577f4e487b7100000000000000000000000000000000000000000000000000000000600052602160045260246000fd5b14610d26576000610d29565b60015b6001811115610d61577f4e487b7100000000000000000000000000000000000000000000000000000000600052602160045260246000fd5b815260200190815260200160002090506000808690505b828054905082108015610d8b5750600081115b15611900576000838381548110610dcb577f4e487b7100000000000000000000000000000000000000000000000000000000600052603260045260246000fd5b906000526020600020906007020160040154848481548110610e16577f4e487b7100000000000000000000000000000000000000000000000000000000600052603260045260246000fd5b906000526020600020906007020160030154610e329190613807565b90506000818311610e435782610e45565b815b90508083610e539190613807565b925080858581548110610e8f577f4e487b7100000000000000000000000000000000000000000000000000000000600052603260045260246000fd5b90600052602060002090600702016004016000828254610eaf9190613757565b925050819055503373ffffffffffffffffffffffffffffffffffffffff16858581548110610f06577f4e487b7100000000000000000000000000000000000000000000000000000000600052603260045260246000fd5b906000526020600020906007020160010160009054906101000a900473ffffffffffffffffffffffffffffffffffffffff1673ffffffffffffffffffffffffffffffffffffffff168b7fdb0c486e680ba8026643e6a85f8d157b5e7bcd4b32b54d564542570a9eb20416600754898981548110610fac577f4e487b7100000000000000000000000000000000000000000000000000000000600052603260045260246000fd5b906000526020600020906007020160000154868b8b81548110610ff8577f4e487b7100000000000000000000000000000000000000000000000000000000600052603260045260246000fd5b9060005260206000209060070201600501544260405161101c959493929190613648565b60405180910390a460018081111561105d577f4e487b7100000000000000000000000000000000000000000000000000000000600052602160045260246000fd5b886001811115611096577f4e487b7100000000000000000000000000000000000000000000000000000000600052602160045260246000fd5b14156113f75780600160003373ffffffffffffffffffffffffffffffffffffffff1673ffffffffffffffffffffffffffffffffffffffff16815260200190815260200160002060008c815260200190815260200160002060008282546110fc9190613807565b9250508190555084848154811061113c577f4e487b7100000000000000000000000000000000000000000000000000000000600052603260045260246000fd5b9060005260206000209060070201600501548161115991906137ad565b600160003373ffffffffffffffffffffffffffffffffffffffff1673ffffffffffffffffffffffffffffffffffffffff16815260200190815260200160002060007f4441490000000000000000000000000000000000000000000000000000000000815260200190815260200160002060008282546111d89190613757565b92505081905550806001600087878154811061121d577f4e487b7100000000000000000000000000000000000000000000000000000000600052603260045260246000fd5b906000526020600020906007020160010160009054906101000a900473ffffffffffffffffffffffffffffffffffffffff1673ffffffffffffffffffffffffffffffffffffffff1673ffffffffffffffffffffffffffffffffffffffff16815260200190815260200160002060008c815260200190815260200160002060008282546112a99190613757565b925050819055508484815481106112e9577f4e487b7100000000000000000000000000000000000000000000000000000000600052603260045260246000fd5b9060005260206000209060070201600501548161130691906137ad565b60016000878781548110611343577f4e487b7100000000000000000000000000000000000000000000000000000000600052603260045260246000fd5b906000526020600020906007020160010160009054906101000a900473ffffffffffffffffffffffffffffffffffffffff1673ffffffffffffffffffffffffffffffffffffffff1673ffffffffffffffffffffffffffffffffffffffff16815260200190815260200160002060007f4441490000000000000000000000000000000000000000000000000000000000815260200190815260200160002060008282546113ef9190613807565b925050819055505b60006001811115611431577f4e487b7100000000000000000000000000000000000000000000000000000000600052602160045260246000fd5b88600181111561146a577f4e487b7100000000000000000000000000000000000000000000000000000000600052602160045260246000fd5b14156118d3578484815481106114a9577f4e487b7100000000000000000000000000000000000000000000000000000000600052603260045260246000fd5b906000526020600020906007020160050154816114c691906137ad565b600160003373ffffffffffffffffffffffffffffffffffffffff1673ffffffffffffffffffffffffffffffffffffffff16815260200190815260200160002060007f44414900000000000000000000000000000000000000000000000000000000008152602001908152602001600020541015611578576040517f08c379a000000000000000000000000000000000000000000000000000000000815260040161156f90613518565b60405180910390fd5b80600160003373ffffffffffffffffffffffffffffffffffffffff1673ffffffffffffffffffffffffffffffffffffffff16815260200190815260200160002060008c815260200190815260200160002060008282546115d89190613757565b92505081905550848481548110611618577f4e487b7100000000000000000000000000000000000000000000000000000000600052603260045260246000fd5b9060005260206000209060070201600501548161163591906137ad565b600160003373ffffffffffffffffffffffffffffffffffffffff1673ffffffffffffffffffffffffffffffffffffffff16815260200190815260200160002060007f4441490000000000000000000000000000000000000000000000000000000000815260200190815260200160002060008282546116b49190613807565b9250508190555080600160008787815481106116f9577f4e487b7100000000000000000000000000000000000000000000000000000000600052603260045260246000fd5b906000526020600020906007020160010160009054906101000a900473ffffffffffffffffffffffffffffffffffffffff1673ffffffffffffffffffffffffffffffffffffffff1673ffffffffffffffffffffffffffffffffffffffff16815260200190815260200160002060008c815260200190815260200160002060008282546117859190613807565b925050819055508484815481106117c5577f4e487b7100000000000000000000000000000000000000000000000000000000600052603260045260246000fd5b906000526020600020906007020160050154816117e291906137ad565b6001600087878154811061181f577f4e487b7100000000000000000000000000000000000000000000000000000000600052603260045260246000fd5b906000526020600020906007020160010160009054906101000a900473ffffffffffffffffffffffffffffffffffffffff1673ffffffffffffffffffffffffffffffffffffffff1673ffffffffffffffffffffffffffffffffffffffff16815260200190815260200160002060007f4441490000000000000000000000000000000000000000000000000000000000815260200190815260200160002060008282546118cb9190613757565b925050819055505b600760008154809291906118e6906138dc565b919050555083806118f6906138dc565b9450505050610d78565b600091505b8280549050821080156119ab575082828154811061194c577f4e487b7100000000000000000000000000000000000000000000000000000000600052603260045260246000fd5b906000526020600020906007020160030154838381548110611997577f4e487b7100000000000000000000000000000000000000000000000000000000600052603260045260246000fd5b906000526020600020906007020160040154145b15611c505760005b600184805490506119c49190613807565b811015611b8157836001826119d99190613757565b81548110611a10577f4e487b7100000000000000000000000000000000000000000000000000000000600052603260045260246000fd5b9060005260206000209060070201848281548110611a57577f4e487b7100000000000000000000000000000000000000000000000000000000600052603260045260246000fd5b9060005260206000209060070201600082015481600001556001820160009054906101000a900473ffffffffffffffffffffffffffffffffffffffff168160010160006101000a81548173ffffffffffffffffffffffffffffffffffffffff021916908373ffffffffffffffffffffffffffffffffffffffff1602179055506001820160149054906101000a900460ff168160010160146101000a81548160ff02191690836001811115611b34577f4e487b7100000000000000000000000000000000000000000000000000000000600052602160045260246000fd5b021790555060028201548160020155600382015481600301556004820154816004015560058201548160050155600682015481600601559050508080611b79906138dc565b9150506119b3565b5082805480611bb9577f4e487b7100000000000000000000000000000000000000000000000000000000600052603160045260246000fd5b60019003818190600052602060002090600702016000808201600090556001820160006101000a81549073ffffffffffffffffffffffffffffffffffffffff02191690556001820160146101000a81549060ff021916905560028201600090556003820160009055600482016000905560058201600090556006820160009055505090558180611c48906138dc565b925050611905565b5050505050505050565b60075481565b60006020528060005260406000206000915090508060000154908060010154908060020160009054906101000a900473ffffffffffffffffffffffffffffffffffffffff16905083565b600460009054906101000a900473ffffffffffffffffffffffffffffffffffffffff1673ffffffffffffffffffffffffffffffffffffffff163373ffffffffffffffffffffffffffffffffffffffff1614611d3a576040517f08c379a0000000000000000000000000000000000000000000000000000000008152600401611d31906134f8565b60405180910390fd5b604051806060016040528060055481526020018381526020018273ffffffffffffffffffffffffffffffffffffffff16815250600080848152602001908152602001600020600082015181600001556020820151816001015560408201518160020160006101000a81548173ffffffffffffffffffffffffffffffffffffffff021916908373ffffffffffffffffffffffffffffffffffffffff160217905550905050600382908060018154018082558091505060019003906000526020600020016000909190919091505560056000815480929190611e19906138dc565b91905055505050565b60038181548110611e3257600080fd5b906000526020600020016000915090505481565b6060600060038054905067ffffffffffffffff811115611e8f577f4e487b7100000000000000000000000000000000000000000000000000000000600052604160045260246000fd5b604051908082528060200260200182016040528015611ec857816020015b611eb5612c6e565b815260200190600190039081611ead5790505b50905060005b60038054905081101561208e57604051806060016040528060008060038581548110611f23577f4e487b7100000000000000000000000000000000000000000000000000000000600052603260045260246000fd5b9060005260206000200154815260200190815260200160002060000154815260200160008060038581548110611f82577f4e487b7100000000000000000000000000000000000000000000000000000000600052603260045260246000fd5b9060005260206000200154815260200190815260200160002060010154815260200160008060038581548110611fe1577f4e487b7100000000000000000000000000000000000000000000000000000000600052603260045260246000fd5b9060005260206000200154815260200190815260200160002060020160009054906101000a900473ffffffffffffffffffffffffffffffffffffffff1673ffffffffffffffffffffffffffffffffffffffff16815250828281518110612070577f4e487b7100000000000000000000000000000000000000000000000000000000600052603260045260246000fd5b60200260200101819052508080612086906138dc565b915050611ece565b508091505090565b83600073ffffffffffffffffffffffffffffffffffffffff1660008083815260200190815260200160002060020160009054906101000a900473ffffffffffffffffffffffffffffffffffffffff1673ffffffffffffffffffffffffffffffffffffffff16141561213c576040517f08c379a0000000000000000000000000000000000000000000000000000000008152600401612133906134d8565b60405180910390fd5b847f44414900000000000000000000000000000000000000000000000000000000008114156121a0576040517f08c379a000000000000000000000000000000000000000000000000000000000815260040161219790613558565b60405180910390fd5b6001808111156121d9577f4e487b7100000000000000000000000000000000000000000000000000000000600052602160045260246000fd5b836001811115612212577f4e487b7100000000000000000000000000000000000000000000000000000000600052602160045260246000fd5b14156122b05784600160003373ffffffffffffffffffffffffffffffffffffffff1673ffffffffffffffffffffffffffffffffffffffff16815260200190815260200160002060008881526020019081526020016000205410156122ab576040517f08c379a00000000000000000000000000000000000000000000000000000000081526004016122a290613538565b60405180910390fd5b61236f565b83856122bc91906137ad565b600160003373ffffffffffffffffffffffffffffffffffffffff1673ffffffffffffffffffffffffffffffffffffffff16815260200190815260200160002060007f4441490000000000000000000000000000000000000000000000000000000000815260200190815260200160002054101561236e576040517f08c379a000000000000000000000000000000000000000000000000000000000815260040161236590613518565b60405180910390fd5b5b60006002600088815260200190815260200160002060008560018111156123bf577f4e487b7100000000000000000000000000000000000000000000000000000000600052602160045260246000fd5b815260200190815260200160002090508060405180610100016040528060065481526020013373ffffffffffffffffffffffffffffffffffffffff168152602001866001811115612439577f4e487b7100000000000000000000000000000000000000000000000000000000600052602160045260246000fd5b8152602001898152602001888152602001600081526020018781526020014281525090806001815401808255809150506001900390600052602060002090600702016000909190919091506000820151816000015560208201518160010160006101000a81548173ffffffffffffffffffffffffffffffffffffffff021916908373ffffffffffffffffffffffffffffffffffffffff16021790555060408201518160010160146101000a81548160ff02191690836001811115612526577f4e487b7100000000000000000000000000000000000000000000000000000000600052602160045260246000fd5b0217905550606082015181600201556080820151816003015560a0820151816004015560c0820151816005015560e08201518160060155505060066000815480929190612572906138dc565b919050555060006001828054905061258a9190613807565b90505b6000811115612c3e57600060018111156125d0577f4e487b7100000000000000000000000000000000000000000000000000000000600052602160045260246000fd5b856001811115612609577f4e487b7100000000000000000000000000000000000000000000000000000000600052602160045260246000fd5b1480156126b5575081818154811061264a577f4e487b7100000000000000000000000000000000000000000000000000000000600052603260045260246000fd5b9060005260206000209060070201600501548260018361266a9190613807565b815481106126a1577f4e487b7100000000000000000000000000000000000000000000000000000000600052603260045260246000fd5b906000526020600020906007020160050154115b156126bf57612c3e565b6001808111156126f8577f4e487b7100000000000000000000000000000000000000000000000000000000600052602160045260246000fd5b856001811115612731577f4e487b7100000000000000000000000000000000000000000000000000000000600052602160045260246000fd5b1480156127dd5750818181548110612772577f4e487b7100000000000000000000000000000000000000000000000000000000600052603260045260246000fd5b906000526020600020906007020160050154826001836127929190613807565b815481106127c9577f4e487b7100000000000000000000000000000000000000000000000000000000600052603260045260246000fd5b906000526020600020906007020160050154105b156127e757612c3e565b6000826001836127f79190613807565b8154811061282e577f4e487b7100000000000000000000000000000000000000000000000000000000600052603260045260246000fd5b906000526020600020906007020160405180610100016040529081600082015481526020016001820160009054906101000a900473ffffffffffffffffffffffffffffffffffffffff1673ffffffffffffffffffffffffffffffffffffffff1673ffffffffffffffffffffffffffffffffffffffff1681526020016001820160149054906101000a900460ff1660018111156128f3577f4e487b7100000000000000000000000000000000000000000000000000000000600052602160045260246000fd5b600181111561292b577f4e487b7100000000000000000000000000000000000000000000000000000000600052602160045260246000fd5b815260200160028201548152602001600382015481526020016004820154815260200160058201548152602001600682015481525050905082828154811061299c577f4e487b7100000000000000000000000000000000000000000000000000000000600052603260045260246000fd5b9060005260206000209060070201836001846129b89190613807565b815481106129ef577f4e487b7100000000000000000000000000000000000000000000000000000000600052603260045260246000fd5b9060005260206000209060070201600082015481600001556001820160009054906101000a900473ffffffffffffffffffffffffffffffffffffffff168160010160006101000a81548173ffffffffffffffffffffffffffffffffffffffff021916908373ffffffffffffffffffffffffffffffffffffffff1602179055506001820160149054906101000a900460ff168160010160146101000a81548160ff02191690836001811115612acc577f4e487b7100000000000000000000000000000000000000000000000000000000600052602160045260246000fd5b0217905550600282015481600201556003820154816003015560048201548160040155600582015481600501556006820154816006015590505080838381548110612b40577f4e487b7100000000000000000000000000000000000000000000000000000000600052603260045260246000fd5b90600052602060002090600702016000820151816000015560208201518160010160006101000a81548173ffffffffffffffffffffffffffffffffffffffff021916908373ffffffffffffffffffffffffffffffffffffffff16021790555060408201518160010160146101000a81548160ff02191690836001811115612bf0577f4e487b7100000000000000000000000000000000000000000000000000000000600052602160045260246000fd5b0217905550606082015181600201556080820151816003015560a0820151816004015560c0820151816005015560e082015181600601559050508180612c35906138b2565b9250505061258d565b5050505050505050565b600460009054906101000a900473ffffffffffffffffffffffffffffffffffffffff1681565b60405180606001604052806000815260200160008019168152602001600073ffffffffffffffffffffffffffffffffffffffff1681525090565b600081359050612cb781613997565b92915050565b600081519050612ccc816139ae565b92915050565b600081359050612ce1816139c5565b92915050565b600081359050612cf6816139dc565b92915050565b600081359050612d0b816139ec565b92915050565b60008060408385031215612d2457600080fd5b6000612d3285828601612ca8565b9250506020612d4385828601612cd2565b9150509250929050565b600060208284031215612d5f57600080fd5b6000612d6d84828501612cbd565b91505092915050565b600060208284031215612d8857600080fd5b6000612d9684828501612cd2565b91505092915050565b60008060408385031215612db257600080fd5b6000612dc085828601612cd2565b9250506020612dd185828601612ca8565b9150509250929050565b60008060408385031215612dee57600080fd5b6000612dfc85828601612cd2565b9250506020612e0d85828601612ce7565b9150509250929050565b60008060408385031215612e2a57600080fd5b6000612e3885828601612cd2565b9250506020612e4985828601612cfc565b9150509250929050565b600080600060608486031215612e6857600080fd5b6000612e7686828701612cd2565b9350506020612e8786828701612cfc565b9250506040612e9886828701612ce7565b9150509250925092565b600080600060608486031215612eb757600080fd5b6000612ec586828701612cd2565b9350506020612ed686828701612cfc565b9250506040612ee786828701612cfc565b9150509250925092565b60008060008060808587031215612f0757600080fd5b6000612f1587828801612cd2565b9450506020612f2687828801612cfc565b9350506040612f3787828801612cfc565b9250506060612f4887828801612ce7565b91505092959194509250565b600060208284031215612f6657600080fd5b6000612f7484828501612cfc565b91505092915050565b6000612f8983836130fe565b60208301905092915050565b6000612fa183836132ba565b6101008301905092915050565b6000612fba838361335c565b60608301905092915050565b612fcf8161383b565b82525050565b612fde8161383b565b82525050565b6000612fef826136cb565b612ff98185613713565b93506130048361369b565b8060005b8381101561303557815161301c8882612f7d565b9750613027836136ec565b925050600181019050613008565b5085935050505092915050565b600061304d826136d6565b6130578185613724565b9350613062836136ab565b8060005b8381101561309357815161307a8882612f95565b9750613085836136f9565b925050600181019050613066565b5085935050505092915050565b60006130ab826136e1565b6130b58185613735565b93506130c0836136bb565b8060005b838110156130f15781516130d88882612fae565b97506130e383613706565b9250506001810190506130c4565b5085935050505092915050565b61310781613859565b82525050565b61311681613859565b82525050565b613125816138a0565b82525050565b613134816138a0565b82525050565b6000613147601083613746565b91507f42616c616e636520746f6f206c6f772e000000000000000000000000000000006000830152602082019050919050565b6000613187601883613746565b91507f5468697320746f6b656e20646f736e27742065786973742e00000000000000006000830152602082019050919050565b60006131c7601383613746565b91507f4f6e6c792061646d696e20616c6c6f7765642e000000000000000000000000006000830152602082019050919050565b6000613207601483613746565b91507f4441492062616c616e636520746f6f206c6f772e0000000000000000000000006000830152602082019050919050565b6000613247601683613746565b91507f546f6b656e2062616c616e636520746f6f206c6f772e000000000000000000006000830152602082019050919050565b6000613287601083613746565b91507f43616e6e6f7420747261646520444149000000000000000000000000000000006000830152602082019050919050565b610100820160008201516132d1600085018261339e565b5060208201516132e46020850182612fc6565b5060408201516132f7604085018261311c565b50606082015161330a60608501826130fe565b50608082015161331d608085018261339e565b5060a082015161333060a085018261339e565b5060c082015161334360c085018261339e565b5060e082015161335660e085018261339e565b50505050565b606082016000820151613372600085018261339e565b50602082015161338560208501826130fe565b5060408201516133986040850182612fc6565b50505050565b6133a781613896565b82525050565b6133b681613896565b82525050565b60006020820190506133d16000830184612fd5565b92915050565b60006060820190506133ec6000830186612fd5565b6133f96020830185612fd5565b61340660408301846133ad565b949350505050565b60006040820190506134236000830185612fd5565b61343060208301846133ad565b9392505050565b600060208201905081810360008301526134518184612fe4565b905092915050565b600060208201905081810360008301526134738184613042565b905092915050565b6000602082019050818103600083015261349581846130a0565b905092915050565b60006020820190506134b2600083018461310d565b92915050565b600060208201905081810360008301526134d18161313a565b9050919050565b600060208201905081810360008301526134f18161317a565b9050919050565b60006020820190508181036000830152613511816131ba565b9050919050565b60006020820190508181036000830152613531816131fa565b9050919050565b600060208201905081810360008301526135518161323a565b9050919050565b600060208201905081810360008301526135718161327a565b9050919050565b600060208201905061358d60008301846133ad565b92915050565b6000610100820190506135a9600083018b6133ad565b6135b6602083018a612fd5565b6135c3604083018961312b565b6135d0606083018861310d565b6135dd60808301876133ad565b6135ea60a08301866133ad565b6135f760c08301856133ad565b61360460e08301846133ad565b9998505050505050505050565b600060608201905061362660008301866133ad565b613633602083018561310d565b6136406040830184612fd5565b949350505050565b600060a08201905061365d60008301886133ad565b61366a60208301876133ad565b61367760408301866133ad565b61368460608301856133ad565b61369160808301846133ad565b9695505050505050565b6000819050602082019050919050565b6000819050602082019050919050565b6000819050602082019050919050565b600081519050919050565b600081519050919050565b600081519050919050565b6000602082019050919050565b6000602082019050919050565b6000602082019050919050565b600082825260208201905092915050565b600082825260208201905092915050565b600082825260208201905092915050565b600082825260208201905092915050565b600061376282613896565b915061376d83613896565b9250827fffffffffffffffffffffffffffffffffffffffffffffffffffffffffffffffff038211156137a2576137a1613925565b5b828201905092915050565b60006137b882613896565b91506137c383613896565b9250817fffffffffffffffffffffffffffffffffffffffffffffffffffffffffffffffff04831182151516156137fc576137fb613925565b5b828202905092915050565b600061381282613896565b915061381d83613896565b9250828210156138305761382f613925565b5b828203905092915050565b600061384682613876565b9050919050565b60008115159050919050565b6000819050919050565b600081905061387182613983565b919050565b600073ffffffffffffffffffffffffffffffffffffffff82169050919050565b6000819050919050565b60006138ab82613863565b9050919050565b60006138bd82613896565b915060008214156138d1576138d0613925565b5b600182039050919050565b60006138e782613896565b91507fffffffffffffffffffffffffffffffffffffffffffffffffffffffffffffffff82141561391a57613919613925565b5b600182019050919050565b7f4e487b7100000000000000000000000000000000000000000000000000000000600052601160045260246000fd5b7f4e487b7100000000000000000000000000000000000000000000000000000000600052602160045260246000fd5b6002811061399457613993613954565b5b50565b6139a08161383b565b81146139ab57600080fd5b50565b6139b78161384d565b81146139c257600080fd5b50565b6139ce81613859565b81146139d957600080fd5b50565b600281106139e957600080fd5b50565b6139f581613896565b8114613a0057600080fd5b5056fea2646970667358221220d06eb8d8d972104c759cbb872ae2063ac93e4e1b7c4562451e24a9efb239e88764736f6c63430008000033",
  "linkReferences": {},
  "deployedLinkReferences": {}
}